{
  "contractName": "StockPrediction",
  "abi": [
    {
      "inputs": [],
      "stateMutability": "nonpayable",
      "type": "constructor"
    },
    {
      "inputs": [
        {
          "internalType": "address",
          "name": "",
          "type": "address"
        }
      ],
      "name": "betAmounts",
      "outputs": [
        {
          "internalType": "uint256",
          "name": "",
          "type": "uint256"
        }
      ],
      "stateMutability": "view",
      "type": "function",
      "constant": true
    },
    {
      "inputs": [
        {
          "internalType": "address",
          "name": "",
          "type": "address"
        }
      ],
      "name": "bets",
      "outputs": [
        {
          "internalType": "int256",
          "name": "",
          "type": "int256"
        }
      ],
      "stateMutability": "view",
      "type": "function",
      "constant": true
    },
    {
      "inputs": [
        {
          "internalType": "uint256",
          "name": "",
          "type": "uint256"
        }
      ],
      "name": "bettors",
      "outputs": [
        {
          "internalType": "address",
          "name": "",
          "type": "address"
        }
      ],
      "stateMutability": "view",
      "type": "function",
      "constant": true
    },
    {
      "inputs": [],
      "name": "currentPrice",
      "outputs": [
        {
          "internalType": "int256",
          "name": "",
          "type": "int256"
        }
      ],
      "stateMutability": "view",
      "type": "function",
      "constant": true
    },
    {
      "inputs": [],
      "name": "isBettingActive",
      "outputs": [
        {
          "internalType": "bool",
          "name": "",
          "type": "bool"
        }
      ],
      "stateMutability": "view",
      "type": "function",
      "constant": true
    },
    {
      "inputs": [],
      "name": "lastCheckedTime",
      "outputs": [
        {
          "internalType": "uint256",
          "name": "",
          "type": "uint256"
        }
      ],
      "stateMutability": "view",
      "type": "function",
      "constant": true
    },
    {
      "inputs": [],
      "name": "lastWinner",
      "outputs": [
        {
          "internalType": "address",
          "name": "",
          "type": "address"
        }
      ],
      "stateMutability": "view",
      "type": "function",
      "constant": true
    },
    {
      "inputs": [],
      "name": "owner",
      "outputs": [
        {
          "internalType": "address",
          "name": "",
          "type": "address"
        }
      ],
      "stateMutability": "view",
      "type": "function",
      "constant": true
    },
    {
      "inputs": [],
      "name": "predictionEndTime",
      "outputs": [
        {
          "internalType": "uint256",
          "name": "",
          "type": "uint256"
        }
      ],
      "stateMutability": "view",
      "type": "function",
      "constant": true
    },
    {
      "inputs": [],
      "name": "predictionStartTime",
      "outputs": [
        {
          "internalType": "uint256",
          "name": "",
          "type": "uint256"
        }
      ],
      "stateMutability": "view",
      "type": "function",
      "constant": true
    },
    {
      "inputs": [],
      "name": "getAllBets",
      "outputs": [
        {
          "components": [
            {
              "internalType": "address",
              "name": "bettor",
              "type": "address"
            },
            {
              "internalType": "int256",
              "name": "amount",
              "type": "int256"
            },
            {
              "internalType": "uint256",
              "name": "betAmount",
              "type": "uint256"
            }
          ],
          "internalType": "struct StockPrediction.BetInfo[]",
          "name": "",
          "type": "tuple[]"
        }
      ],
      "stateMutability": "view",
      "type": "function",
      "constant": true
    },
    {
      "inputs": [
        {
          "internalType": "int256",
          "name": "_currentPrice",
          "type": "int256"
        }
      ],
      "name": "startPrediction",
      "outputs": [],
      "stateMutability": "nonpayable",
      "type": "function"
    },
    {
      "inputs": [
        {
          "internalType": "int256",
          "name": "_prediction",
          "type": "int256"
        }
      ],
      "name": "enterBet",
      "outputs": [],
      "stateMutability": "payable",
      "type": "function",
      "payable": true
    },
    {
      "inputs": [
        {
          "internalType": "int256",
          "name": "_currentPrice",
          "type": "int256"
        }
      ],
      "name": "finalizePrediction",
      "outputs": [],
      "stateMutability": "nonpayable",
      "type": "function"
    },
    {
      "inputs": [],
      "name": "resetLastWinner",
      "outputs": [],
      "stateMutability": "nonpayable",
      "type": "function"
    },
    {
      "inputs": [],
      "name": "isPredictionOver",
      "outputs": [
        {
          "internalType": "bool",
          "name": "",
          "type": "bool"
        }
      ],
      "stateMutability": "view",
      "type": "function",
      "constant": true
    },
    {
      "inputs": [],
      "name": "getPoolAmount",
      "outputs": [
        {
          "internalType": "uint256",
          "name": "",
          "type": "uint256"
        }
      ],
      "stateMutability": "view",
      "type": "function",
      "constant": true
    }
  ],
  "bytecode": "0x60806040523480156200001157600080fd5b50336000806101000a81548173ffffffffffffffffffffffffffffffffffffffff021916908373ffffffffffffffffffffffffffffffffffffffff16021790555061012c42620000629190620000c2565b6002819055506000600860006101000a81548160ff021916908315150217905550620000fd565b6000819050919050565b7f4e487b7100000000000000000000000000000000000000000000000000000000600052601160045260246000fd5b6000620000cf8262000089565b9150620000dc8362000089565b9250828201905080821115620000f757620000f662000093565b5b92915050565b6118ae806200010d6000396000f3fe6080604052600436106100fe5760003560e01c806398daaacd11610095578063cdcd547d11610064578063cdcd547d14610327578063d86efb2014610352578063e6c21f8514610369578063ebcfcf6b14610385578063fe188184146103c2576100fe565b806398daaacd1461027f5780639d1b464a146102a8578063cae957a5146102d3578063ccd23226146102fe576100fe565b8063700eae73116100d1578063700eae73146101c1578063801f1981146101ec57806389a78f1a146102175780638da5cb5b14610254576100fe565b806307736f121461010357806323d68b6a1461012e5780633482b644146101595780634ab4ba4214610196575b600080fd5b34801561010f57600080fd5b506101186103ed565b604051610125919061108c565b60405180910390f35b34801561013a57600080fd5b50610143610400565b604051610150919061108c565b60405180910390f35b34801561016557600080fd5b50610180600480360381019061017b91906110e2565b61041c565b60405161018d9190611150565b60405180910390f35b3480156101a257600080fd5b506101ab61045b565b6040516101b8919061117a565b60405180910390f35b3480156101cd57600080fd5b506101d6610463565b6040516101e391906112bd565b60405180910390f35b3480156101f857600080fd5b506102016106bf565b60405161020e919061117a565b60405180910390f35b34801561022357600080fd5b5061023e6004803603810190610239919061130b565b6106c5565b60405161024b9190611347565b60405180910390f35b34801561026057600080fd5b506102696106dd565b6040516102769190611150565b60405180910390f35b34801561028b57600080fd5b506102a660048036038101906102a1919061138e565b610701565b005b3480156102b457600080fd5b506102bd6107cf565b6040516102ca9190611347565b60405180910390f35b3480156102df57600080fd5b506102e86107d5565b6040516102f5919061117a565b60405180910390f35b34801561030a57600080fd5b506103256004803603810190610320919061138e565b6107db565b005b34801561033357600080fd5b5061033c610cd2565b604051610349919061117a565b60405180910390f35b34801561035e57600080fd5b50610367610cd8565b005b610383600480360381019061037e919061138e565b610daa565b005b34801561039157600080fd5b506103ac60048036038101906103a7919061130b565b610f25565b6040516103b9919061117a565b60405180910390f35b3480156103ce57600080fd5b506103d7610f3d565b6040516103e49190611150565b60405180910390f35b600860009054906101000a900460ff1681565b600060025442106104145760019050610419565b600090505b90565b6005818154811061042c57600080fd5b906000526020600020016000915054906101000a900473ffffffffffffffffffffffffffffffffffffffff1681565b600047905090565b6060600060058054905067ffffffffffffffff811115610486576104856113bb565b5b6040519080825280602002602001820160405280156104bf57816020015b6104ac610f93565b8152602001906001900390816104a45790505b50905060005b6005805490508110156106b757600581815481106104e6576104e56113ea565b5b9060005260206000200160009054906101000a900473ffffffffffffffffffffffffffffffffffffffff16828281518110610524576105236113ea565b5b60200260200101516000019073ffffffffffffffffffffffffffffffffffffffff16908173ffffffffffffffffffffffffffffffffffffffff1681525050600460006005838154811061057a576105796113ea565b5b9060005260206000200160009054906101000a900473ffffffffffffffffffffffffffffffffffffffff1673ffffffffffffffffffffffffffffffffffffffff1673ffffffffffffffffffffffffffffffffffffffff168152602001908152602001600020548282815181106105f3576105f26113ea565b5b60200260200101516020018181525050600660006005838154811061061b5761061a6113ea565b5b9060005260206000200160009054906101000a900473ffffffffffffffffffffffffffffffffffffffff1673ffffffffffffffffffffffffffffffffffffffff1673ffffffffffffffffffffffffffffffffffffffff16815260200190815260200160002054828281518110610694576106936113ea565b5b6020026020010151604001818152505080806106af90611448565b9150506104c5565b508091505090565b60075481565b60046020528060005260406000206000915090505481565b60008054906101000a900473ffffffffffffffffffffffffffffffffffffffff1681565b60008054906101000a900473ffffffffffffffffffffffffffffffffffffffff1673ffffffffffffffffffffffffffffffffffffffff163373ffffffffffffffffffffffffffffffffffffffff161461078f576040517f08c379a0000000000000000000000000000000000000000000000000000000008152600401610786906114ed565b60405180910390fd5b806003819055504260018190555061012c426107ab919061150d565b6002819055506001600860006101000a81548160ff02191690831515021790555050565b60035481565b60015481565b600254421015610820576040517f08c379a00000000000000000000000000000000000000000000000000000000081526004016108179061158d565b60405180910390fd5b600860009054906101000a900460ff1661086f576040517f08c379a0000000000000000000000000000000000000000000000000000000008152600401610866906115f9565b60405180910390fd5b600060046000600560008154811061088a576108896113ea565b5b9060005260206000200160009054906101000a900473ffffffffffffffffffffffffffffffffffffffff1673ffffffffffffffffffffffffffffffffffffffff1673ffffffffffffffffffffffffffffffffffffffff168152602001908152602001600020549050600061090060035483610f63565b905060006005600081548110610919576109186113ea565b5b9060005260206000200160009054906101000a900473ffffffffffffffffffffffffffffffffffffffff1690506000600190505b600580549050811015610a515760006004600060058481548110610974576109736113ea565b5b9060005260206000200160009054906101000a900473ffffffffffffffffffffffffffffffffffffffff1673ffffffffffffffffffffffffffffffffffffffff1673ffffffffffffffffffffffffffffffffffffffff16815260200190815260200160002054905060006109ea60035483610f63565b905084811015610a3c5781955080945060058381548110610a0e57610a0d6113ea565b5b9060005260206000200160009054906101000a900473ffffffffffffffffffffffffffffffffffffffff1693505b50508080610a4990611448565b91505061094d565b50600047905060008111610a9a576040517f08c379a0000000000000000000000000000000000000000000000000000000008152600401610a9190611665565b60405180910390fd5b600073ffffffffffffffffffffffffffffffffffffffff168273ffffffffffffffffffffffffffffffffffffffff1603610b09576040517f08c379a0000000000000000000000000000000000000000000000000000000008152600401610b00906116d1565b60405180910390fd5b8173ffffffffffffffffffffffffffffffffffffffff166108fc829081150290604051600060405180830381858888f19350505050158015610b4f573d6000803e3d6000fd5b5081600860016101000a81548173ffffffffffffffffffffffffffffffffffffffff021916908373ffffffffffffffffffffffffffffffffffffffff1602179055506000600181905550600060028190555060006003819055506000600860006101000a81548160ff02191690831515021790555060005b600580549050811015610c6a5760006004600060058481548110610bee57610bed6113ea565b5b9060005260206000200160009054906101000a900473ffffffffffffffffffffffffffffffffffffffff1673ffffffffffffffffffffffffffffffffffffffff1673ffffffffffffffffffffffffffffffffffffffff168152602001908152602001600020819055508080610c6290611448565b915050610bc7565b50600067ffffffffffffffff811115610c8657610c856113bb565b5b604051908082528060200260200182016040528015610cb45781602001602082028036833780820191505090505b5060059080519060200190610cca929190610fca565b505050505050565b60025481565b60008054906101000a900473ffffffffffffffffffffffffffffffffffffffff1673ffffffffffffffffffffffffffffffffffffffff163373ffffffffffffffffffffffffffffffffffffffff1614610d66576040517f08c379a0000000000000000000000000000000000000000000000000000000008152600401610d5d9061173d565b60405180910390fd5b6000600860016101000a81548173ffffffffffffffffffffffffffffffffffffffff021916908373ffffffffffffffffffffffffffffffffffffffff160217905550565b6002544210610dee576040517f08c379a0000000000000000000000000000000000000000000000000000000008152600401610de5906117a9565b60405180910390fd5b66038d7ea4c680003411610e37576040517f08c379a0000000000000000000000000000000000000000000000000000000008152600401610e2e90611815565b60405180910390fd5b80600460003373ffffffffffffffffffffffffffffffffffffffff1673ffffffffffffffffffffffffffffffffffffffff168152602001908152602001600020819055506005339080600181540180825580915050600190039060005260206000200160009091909190916101000a81548173ffffffffffffffffffffffffffffffffffffffff021916908373ffffffffffffffffffffffffffffffffffffffff16021790555034600660003373ffffffffffffffffffffffffffffffffffffffff1673ffffffffffffffffffffffffffffffffffffffff1681526020019081526020016000208190555050565b60066020528060005260406000206000915090505481565b600860019054906101000a900473ffffffffffffffffffffffffffffffffffffffff1681565b600081831215610f7e578282610f799190611835565b610f8b565b8183610f8a9190611835565b5b905092915050565b6040518060600160405280600073ffffffffffffffffffffffffffffffffffffffff16815260200160008152602001600081525090565b828054828255906000526020600020908101928215611043579160200282015b828111156110425782518260006101000a81548173ffffffffffffffffffffffffffffffffffffffff021916908373ffffffffffffffffffffffffffffffffffffffff16021790555091602001919060010190610fea565b5b5090506110509190611054565b5090565b5b8082111561106d576000816000905550600101611055565b5090565b60008115159050919050565b61108681611071565b82525050565b60006020820190506110a1600083018461107d565b92915050565b600080fd5b6000819050919050565b6110bf816110ac565b81146110ca57600080fd5b50565b6000813590506110dc816110b6565b92915050565b6000602082840312156110f8576110f76110a7565b5b6000611106848285016110cd565b91505092915050565b600073ffffffffffffffffffffffffffffffffffffffff82169050919050565b600061113a8261110f565b9050919050565b61114a8161112f565b82525050565b60006020820190506111656000830184611141565b92915050565b611174816110ac565b82525050565b600060208201905061118f600083018461116b565b92915050565b600081519050919050565b600082825260208201905092915050565b6000819050602082019050919050565b6111ca8161112f565b82525050565b6000819050919050565b6111e3816111d0565b82525050565b6111f2816110ac565b82525050565b60608201600082015161120e60008501826111c1565b50602082015161122160208501826111da565b50604082015161123460408501826111e9565b50505050565b600061124683836111f8565b60608301905092915050565b6000602082019050919050565b600061126a82611195565b61127481856111a0565b935061127f836111b1565b8060005b838110156112b0578151611297888261123a565b97506112a283611252565b925050600181019050611283565b5085935050505092915050565b600060208201905081810360008301526112d7818461125f565b905092915050565b6112e88161112f565b81146112f357600080fd5b50565b600081359050611305816112df565b92915050565b600060208284031215611321576113206110a7565b5b600061132f848285016112f6565b91505092915050565b611341816111d0565b82525050565b600060208201905061135c6000830184611338565b92915050565b61136b816111d0565b811461137657600080fd5b50565b60008135905061138881611362565b92915050565b6000602082840312156113a4576113a36110a7565b5b60006113b284828501611379565b91505092915050565b7f4e487b7100000000000000000000000000000000000000000000000000000000600052604160045260246000fd5b7f4e487b7100000000000000000000000000000000000000000000000000000000600052603260045260246000fd5b7f4e487b7100000000000000000000000000000000000000000000000000000000600052601160045260246000fd5b6000611453826110ac565b91507fffffffffffffffffffffffffffffffffffffffffffffffffffffffffffffffff820361148557611484611419565b5b600182019050919050565b600082825260208201905092915050565b7f4f6e6c79206f776e65722063616e2073746172742070726564696374696f6e00600082015250565b60006114d7601f83611490565b91506114e2826114a1565b602082019050919050565b60006020820190508181036000830152611506816114ca565b9050919050565b6000611518826110ac565b9150611523836110ac565b925082820190508082111561153b5761153a611419565b5b92915050565b7f50726564696374696f6e2074696d65206973206e6f74206f7665722079657400600082015250565b6000611577601f83611490565b915061158282611541565b602082019050919050565b600060208201905081810360008301526115a68161156a565b9050919050565b7f42657474696e67206973206e6f74206163746976650000000000000000000000600082015250565b60006115e3601583611490565b91506115ee826115ad565b602082019050919050565b60006020820190508181036000830152611612816115d6565b9050919050565b7f4e6f20657468657220696e20706f6f6c00000000000000000000000000000000600082015250565b600061164f601083611490565b915061165a82611619565b602082019050919050565b6000602082019050818103600083015261167e81611642565b9050919050565b7f4e6f2077696e6e65720000000000000000000000000000000000000000000000600082015250565b60006116bb600983611490565b91506116c682611685565b602082019050919050565b600060208201905081810360008301526116ea816116ae565b9050919050565b7f4f6e6c79206f776e65722063616e207265736574206c6173742077696e6e6572600082015250565b6000611727602083611490565b9150611732826116f1565b602082019050919050565b600060208201905081810360008301526117568161171a565b9050919050565b7f50726564696374696f6e2074696d65206973206f766572000000000000000000600082015250565b6000611793601783611490565b915061179e8261175d565b602082019050919050565b600060208201905081810360008301526117c281611786565b9050919050565b7f4d696e696d756d2062657420697320302e303031206574686572000000000000600082015250565b60006117ff601a83611490565b915061180a826117c9565b602082019050919050565b6000602082019050818103600083015261182e816117f2565b9050919050565b6000611840826111d0565b915061184b836111d0565b925082820390508181126000841216828213600085121516171561187257611871611419565b5b9291505056fea26469706673582212208665e11c52160d9a583cd6775fd40c35f5968c394763403abf41c12627dc28c164736f6c63430008100033",
  "immutableReferences": {},
  "source": "pragma solidity ^0.8.0;\n\ncontract StockPrediction {\n    address public owner;\n    uint public predictionStartTime;\n    uint public predictionEndTime;\n    int public currentPrice;\n    mapping(address => int) public bets;\n    address[] public bettors;\n    mapping(address => uint256) public betAmounts;\n\n    uint public lastCheckedTime;\n    bool public isBettingActive;\n    address public lastWinner;\n\n    struct Bet {\n        address bettor;\n        int amount;\n    }\n\n    struct BetInfo {\n        address bettor;\n        int amount;\n        uint256 betAmount;\n    }\n\n    constructor() {\n        owner = msg.sender;\n        predictionEndTime = block.timestamp + 5 minutes; // Set default end time to 5 minutes after contract deployment\n        isBettingActive = false;\n    }\n\n    function getAllBets() public view returns (BetInfo[] memory) {\n        BetInfo[] memory allBets = new BetInfo[](bettors.length);\n        for (uint i = 0; i < bettors.length; i++) {\n            allBets[i].bettor = bettors[i];\n            allBets[i].amount = bets[bettors[i]];\n            allBets[i].betAmount = betAmounts[bettors[i]];\n        }\n        return allBets;\n    }\n\n    function startPrediction(int _currentPrice) public {\n        require(msg.sender == owner, \"Only owner can start prediction\");\n        currentPrice = _currentPrice;\n        predictionStartTime = block.timestamp;\n        predictionEndTime = block.timestamp + 5 minutes; // Set the prediction end time to 5 minutes after the start time\n        isBettingActive = true;\n    }\n\n    function enterBet(int _prediction) public payable {\n        require(block.timestamp < predictionEndTime, \"Prediction time is over\");\n        require(msg.value > 0.001 ether, \"Minimum bet is 0.001 ether\");\n        bets[msg.sender] = _prediction;\n        bettors.push(msg.sender);\n        betAmounts[msg.sender] = msg.value;\n    }\n\n    function finalizePrediction(int _currentPrice) public {\n        require(block.timestamp >= predictionEndTime, \"Prediction time is not over yet\");\n        require(isBettingActive, \"Betting is not active\");\n\n        int closestPrediction = bets[bettors[0]];\n        uint closestDistance = abs(currentPrice, closestPrediction);\n        address payable winner = payable(bettors[0]);\n\n        for (uint i = 1; i < bettors.length; i++) {\n            int prediction = bets[bettors[i]];\n            uint distance = abs(currentPrice, prediction);\n            if (distance < closestDistance) {\n                closestPrediction = prediction;\n                closestDistance = distance;\n                winner = payable(bettors[i]);\n            }\n        }\n\n        uint pool = address(this).balance;\n        require(pool > 0, \"No ether in pool\");\n        require(winner != address(0), \"No winner\");\n        winner.transfer(pool);\n        lastWinner = winner;\n\n        predictionStartTime = 0;\n        predictionEndTime = 0;\n        currentPrice = 0;\n        isBettingActive = false;\n\n        for (uint i = 0; i < bettors.length; i++) {\n            bets[bettors[i]] = 0;\n        }\n        bettors = new address[](0);\n    }\n    function resetLastWinner() public {\n        require(msg.sender == owner, \"Only owner can reset last winner\");\n        lastWinner = address(0);\n    }\n\n    function isPredictionOver() public view returns (bool) {\n        if (block.timestamp >= predictionEndTime) {\n            return true;\n        }\n        return false;\n    }\n\n    function getPoolAmount() public view returns (uint) {\n    return address(this).balance;\n}\n\n\n    function abs(int x, int y) internal pure returns (uint) {\n        return x >= y ? uint(x - y) : uint(y - x);\n    }\n}\n",
  "sourcePath": "/Users/kevin/github/prediction-dapp-solidity/contracts/StockPrediction.sol",
  "compiler": {
    "name": "solc",
    "version": "0.8.16+commit.07a7930e.Emscripten.clang"
  },
  "schemaVersion": "3.4.11",
  "updatedAt": "2023-02-22T21:34:03.038Z",
  "networkType": "ethereum",
  "devdoc": {
    "kind": "dev",
    "methods": {},
    "version": 1
  },
  "userdoc": {
    "kind": "user",
    "methods": {},
    "version": 1
  }
}